:020000040800F2
:1000000000800120A10E00084102000845020008FE
:10001000490200084D0200085102000800000000DB
:100020000000000000000000000000005502000871
:1000300059020008000000005D020008610200088B
:10004000E90E0008E90E0008E90E0008E90E0008B4
:10005000E90E0008E90E0008E90E0008E90E0008A4
:10006000E90E0008E90E0008E90E00087102000818
:10007000E90E0008E90E0008E90E0008E90E000884
:10008000E90E0008E90E0008E90E0008E90E000874
:10009000E90E0008E90E0008E90E0008E90E000864
:1000A000E90E0008E90E0008E90E0008E90E000854
:1000B000E90E0008E90E0008E90E0008E90E000844
:1000C000E90E0008E90E0008E90E0008E90E000834
:1000D000E90E0008E90E0008E90E0008E90E000824
:1000E000E90E0008E90E0008E90E0008E90E000814
:1000F000E90E0008E90E0008E90E0008E90E000804
:10010000E90E0008E90E0008E90E0008E90E0008F3
:10011000E90E0008E90E0008E90E0008E90E0008E3
:10012000E90E0008E90E0008E90E0008E90E0008D3
:10013000E90E0008E90E0008E90E0008E90E0008C3
:1001400000000000000000000000000000000000AF
:10015000E90E0008E90E0008E90E0008E90E0008A3
:10016000E90E0008E90E0008E90E0008E90E000893
:10017000E90E0008E90E0008E90E0008E90E000883
:04018000E90E00087C
:1001880010B5054C237833B9044B13B10448AFF3C9
:1001980000800123237010BDC8000020000000006B
:1001A800201B000808B5034B1BB103490348AFF3F4
:1001B800008008BD00000000CC000020201B0008C3
:1001C800F1EE103A43F08073E1EE103A704700BF49
:1001D80010B500F005FA0121084600F05DFA00F0BC
:1001E80033FA0028FBD03B210220012200F094FAC8
:1001F8000121022000F050FA192000F013FA01281A
:100208000446F9D1002000F06FFA042000F07CFACF
:10021800042000F071FA204600F034FB022000F0C0
:10022800A7FA00F0ADFA0228FBD1002000F02AFB63
:10023800BDE8104000F088BE704700BFFEE700BF71
:10024800FEE700BFFEE700BFFEE700BF704700BF44
:10025800704700BF704700BF024A1368013313603C
:10026800704700BFE40000200148012101F070BB85
:1002780000000240000000002DE9F04FBC4CBD4BCF
:10028800E2684FF6FF010A401343E360BFB0FFF78F
:100298009FFF042000F0D4FCB74BB84A1B68A2FBB0
:1002A80003239B09013BB3F1807F09D24FF0E02281
:1002B800F02053610021072384F823009161136122
:1002C80001214FF4C01000F0D1F9AD48AD4F012124
:1002D80000F0CCF9AC48012100F0C8F9AB4B4FF461
:1002E800E07421A93846CDE9214300F08BFBA848EA
:1002F8003C610121002500F0B9F9A14801214FF026
:100308000208CDE9185500F0B1F9A24B199318A9C4
:100318003846CDF8608000F075FB21A8CDE921555D
:10032800CDE92355259500F033FA219B9A48DC093D
:100338009A4BA3FB04342409013CA4B24FF47A720B
:10034800214600F015FD0DF1500B2946924800F0AA
:1003580017FD013C584600F005FD01264FF4837354
:100368004FF480798C4814935A46062104EBD474D0
:100378008DF85660ADF8549000F008FD44FA06F286
:100388008548062100F072FD8348314600F07EFD65
:100398003146814800F0E0FC584600F003FC21A8F3
:1003A80000F0F6FA18A800F057FC7D48314600F036
:1003B8005DF97348314600F059F97A4A4FF4204301
:1003C80038465946CDE9143200F01CFB31464FF44B
:1003D800A01000F04BF92A4641460B2000F0EAFB3A
:1003E8000C223146704800F089FA704800F05AFA39
:1003F8006F4B6E48219321A9102323932295ADF8C2
:100408009450CDF8909000F0CBFA4FF08073694883
:1004180018A9CDE9189300F025FC554AD2F8FC300C
:1004280013F080730BD1D2F8FC1041F08071C2F840
:10043800FC10A2F55D425360136833431360514AC0
:100448001B921D921F9201221A928022ADF87020F1
:10045800594BDFF88891594F4022ADF878204FF476
:100468008072ADF880200FCB8BE80F003EA3D3E954
:100478000023CDE918239BE80F000DF12C0888E82C
:100488000F0002230A934E4B08934E4B07934E4B93
:1004980006934E4B059301234FF4A07E4FF0F00CCA
:1004A800002404934A4818AB0993CDE90244CDF8D7
:1004B80004E0CDF800C07346624621A9006800F048
:1004C80017FE434B8346186000F016FFFF2158467D
:1004D80000F056FF3F4B0093FF23029358463E4BD4
:1004E80003942246CDF804900A2101F0DBF84FF47A
:1004F800FA602646254600F07DFDD7F800A03B6847
:10050800A3EB0A03B3F57A7F4FF0000814D2310247
:1005180041EA05412143584600F032FF3B68A3EB0E
:100528000A03013502360434B3F57A7FEDB2F6B228
:10053800E4B208F10108EAD311A90A22404601F001
:10054800E9FA0022FF23CDE90232224B00935846F4
:10055800CDF8049011AB0A2101F0A4F84FF47A7099
:1005680000F048FDC9E700BF003800400000024025
:1005780000ED00E00003FA0500000020D34D6210F2
:1005880003001800000C01400400180000041001CA
:1005980001001C000004080100040040598B4F01B1
:1005A8000E001C000004080200000240080002407F
:1005B8000C38004000380040381B0008E4000020D8
:1005C800391A0008311A00080D1A0008D119000854
:1005D800E800002004000020481B000800FFFF007E
:1005E8000F490B6843F001030B600B689B07FCD5B0
:1005F8004B680B4A6FF301034B60536813F00C0F01
:10060800C3F38101F9D1136823F086734FF41F00F7
:1006180023F480331360516011639060704700BF0A
:1006280000100240030C03F1804303F5043300F08B
:100638001F001A68012303FA00F030EA02030CBF16
:1006480001200020704700BF074A1368980306D4AA
:100658004FF440531168890301D4013BFAD1024B8E
:100668001868C0F34040704700100240030C03F1C3
:10067800804303F5043301291A6800F01F0006D0EF
:10068800012101FA00F022EA00001860704701FA1F
:1006980000F0104318607047042809D8DFE800F01C
:1006A800090F151B03000F4B5A6A61F300025A62C7
:1006B80070470C4B1A6861F300021A607047094BC7
:1006C8001A6861F310421A607047064B1A6861F3A2
:1006D80018621A607047034B1A6A61F300021A62C3
:1006E800704700BF00100240024B5A6860F30712BF
:1006F8005A60704700100240024B5A6860F30A22A1
:100708005A60704700100240024B5A6860F3CD22CD
:100718005A6070470010024010B4144B5C68C0B9AE
:1007280060F310445C60186B40F0007018630F4B66
:10073800586861F395405860C1F3011C59686CF31F
:100748005E715960596862F3DF7159605DF8044B56
:10075800704744F480345C60012858680CBF6FF31C
:10076800514040F400305860E1E700BF00100240FB
:10077800024B5A6860F301025A6070470010024049
:10078800024B5868C0F38100704700BF0010024058
:1007980010B4344A536813F00C0FC3F381012AD004
:1007A800022931D0304B03602E49304C4A68C2F3DD
:1007B8000312A25C2E4CD34043604A68C2F3022263
:1007C800A25C2C4C23FA02F2C2604A68C2F3C2222D
:1007D800A25CD34083604C684A68C4F30071C2F3DA
:1007E800813242EA810224495DF8044B8A5CB3FBFA
:1007F800F2F303617047536D9B05D3D5136B9C01CE
:10080800D0D51E4B0360CFE751685368546814F085
:10081800C04FC1F30042C3F38343C4F3417108D10D
:100828000F2B06D002334AB9154A02FB03F30360C3
:10083800BAE7013303EB0113002AF5D0094A5168DE
:1008480089030AD5526D0849C2F301320232B1FB5D
:10085800F2F202FB03F30360A6E7034A02FB03F389
:100868000360A1E70010024000127A00681B00082C
:10087800601B0008601B0008581B0008006CDC02A5
:1008880000093D00012805D0054B5A6D6FF305128C
:100898005A657047024A536D43F0300353657047F9
:1008A80000100240016840F2FF42024000236FF34B
:1008B8000001B2F5816F0160036043608360C3602B
:1008C8000ED2C3B20A4A0B49083BA2FB03231B09F9
:1008D80048689B000F2202FA03F303434B607047FA
:1008E800B2F5916FFBD2C3B2014A0349083BECE76A
:1008F800CDCCCCCC0000024000040240D0F8A4309B
:10090800DB0105D4D0F8A43043F08073C0F8A430DC
:10091800012919D0022910D0032923D004291AD07B
:10092800052926D006292BD0072905D1D0F8A430CF
:1009380062F31743C0F8A4307047D0F8A03062F3D0
:100948000F23C0F8A0307047D0F8A03062F3070337
:10095800C0F8A0307047D0F8A03062F31F63C0F829
:10096800A0307047D0F8A03062F31743C0F8A03029
:100978007047D0F8A43062F30703C0F8A43070477A
:10098800D0F8A43062F30F23C0F8A430704700BF3A
:100998000023C0E90033C0E902330382704700BF77
:1009A80003684BF6EF721340036002680B89134328
:1009B800036003684A7C62F30D3303600368CA7BF3
:1009C80062F38B23036003688A7B62F30923036065
:1009D80003684A7B62F3C713036003680A7B62F308
:1009E800861303600A7C036862F345130360D1E948
:1009F800002310B44C89446082605DF8044BC360E6
:100A0800704700BF10B58B790A68032B1FFA82FE66
:100A180000F0C180002B00F0B48091F804C0CC79BC
:100A280003F008030CF004010B4304F003010B432B
:100A380091B2D2B2002A4ED0CC0706D5026822F075
:100A48000F02026002681A4302608A0707D502682B
:100A580022F0F0020260026842EA031202604C07C8
:100A680007D5026822F470620260026842EA032233
:100A780002600A0707D5026822F470420260026821
:100A880042EA03320260CC0607D5026822F47022DB
:100A98000260026842EA034202608A0607D50268D9
:100AA80022F470020260026842EA035202604C06B5
:100AB80007D5026822F070620260026842EA0362A7
:100AC80002600A0607D5026822F0704202600268D6
:100AD80042EA03720260BEF1FF0F51D91EF4807F13
:100AE8004FEA1E2206D0416821F00F01416041689B
:100AF80019434160940707D5416821F0F00141602E
:100B0800416841EA03114160510707D5416821F462
:100B180070614160416841EA03214160140707D5CB
:100B2800416821F470414160416841EA0331416004
:100B3800D10607D5416821F470214160416841EA36
:100B480003414160940607D5416821F47001416072
:100B5800416841EA03514160510607D5416821F0D7
:100B680070614160416841EA03614160D20907D080
:100B7800426822F070424260426842EA037343606E
:100B880010BD4979182901F00F0307D0282991B21F
:100B980008BF41614DE7714600234AE791B2016100
:100BA80047E700BF024B4FF6FF72C0E900237047CA
:100BB800000400011F4BDB68C3F3022300B5C3F137
:100BC800070EBEF1040F03F1040C28BF4FF0040E0A
:100BD800BCF1060F21D9033B4FF0FF3C0CFA03FC94
:100BE80022EA0C024FF0FF3C0CFA0EFC21EA0C0141
:100BF8009940002841EA020112DB0F4A0901131843
:100C0800C9B283F800130123410900F01F0003FA59
:100C180000F042F821005DF804FB00221346E1E7EA
:100C2800064B00F00F0009010344C9B219765DF8BC
:100C380004FB00BF00ED00E000E100E0FCEC00E098
:100C48004FF0E022042813690CBF43F0040323F09B
:100C580004031361704700BF00224FF080730260E5
:100C680043607047C3696FF3CB23C3610B78002BD4
:100C78003ED1026863F3CF320260026863F38E32BA
:100C88000260026863F38A220260036891F807C071
:100C98006CF3492303604A780368012A3BD06FF359
:100CA80008230360036862F3820303608B78426859
:100CB800072B8CBF42F480726FF3082242600268EF
:100CC80063F3C50202600368CA7862F3C71303605E
:100CD80003680A7962F3CB23036003684A7962F3F5
:100CE800410303608A79036862F300030360704775
:100CF800012B17D0022B22D0032BC6D1036843F453
:100D080000430360036843F48043036003686FF3A0
:100D18008A230360B9E7BCF1010FC0D143F48073A3
:100D28000360BFE703686FF3CF33036003686FF3B3
:100D38008E330360036843F480630360A5E70368A8
:100D480043F40043036003686FF38E330360036862
:100D58006FF38A23036098E7036861F30003036075
:100D6800704700BF002303600371437183717047AC
:100D7800C1628262436943F001034361704700BF67
:100D8800036861F306130360704700BFF0B5547839
:100D9800436801F1080501F109070126AC4006FA8C
:100DA80005F5BE401FFA84FC23EA060694784660DF
:100DB8004368BC40A4B21C434460436823EA050569
:100DC800456044684CEA04041FFA81FE4460062921
:100DD8000AD8DFE801F0040945093F093900147809
:100DE800836964F3061383611679036A4FEA4E0E2A
:100DF80001254FEA410C0EF103018E4005FA01F17D
:100E080023EA0101B3B21943D3780EF10104A340D8
:100E180005FA04F421EA0401947952799BB202FAA2
:100E28000CF20CF1020C194304FA0CF405FA0CF359
:100E380021EA0303A1B205FA0EFE0B4323EA0E03CF
:100E480092B213430362F0BD1478C36964F30E339E
:100E5800C361C9E71478C36964F30613C361C3E7C0
:100E68001478836964F30E338361BDE7062906D8D5
:100E7800DFE801F00A05080506050400026470476A
:100E8800C26370478263704742637047436C61F383
:100E9800CF334364704700BF002103E00B4B5B581E
:100EA800435004310A480B4B42189A42F6D30A4A77
:100EB80002E0002342F8043B084B9A42F9D300F0C1
:100EC80011F800F0B9FDFFF7D7F970477C47000823
:100ED80000000020C8000020C8000020EC0000200E
:100EE800FEE70000164A1749D2F8883010B443F4D8
:100EF8007003C2F888300B6843F001030B600B687D
:100F08009B07FCD54B680F4A6FF301034B6053688E
:100F180013F00C0FC3F38101F9D11368084823F0CB
:100F2800867323F4803313604FF41F044FF000637B
:100F38005160116394605DF8044B8360704700BF93
:100F480000ED00E00010024008B5FFF719FC60B1A1
:100F5800022816D0214B224A224852682249C2F35D
:100F68000312825CD3400B6008BD1D4B5A6D90057F
:100F7800F0D5196B194A1D4B11F0007F08BF1346B5
:100F8800E9E717494A684B68496811F0C04FC2F34E
:100F98000042C3F38343C1F3417007D10F2B05D03F
:100FA800023342B9124A02FB03F3D4E7013303EBDD
:100FB8000013002AF6D00A4A5168890309D5526DF0
:100FC8000649C2F301320232B1FBF2F202FB03F32B
:100FD800C1E7024A02FB03F3BDE700BF00127A0033
:100FE80000100240781B000800000020006CDC02A2
:100FF80000093D004FF0E023421C1B6918BF013077
:101008004FF0E0221369DB03FCD50138FAD17047B1
:10101800F8B5456A04462B685F06C3F38012FAD414
:101028002B6862F3CB232B602B6843F040032B60C3
:10103800236C13B1B4F844205A610B78012B35D0D6
:10104800022B4DD04BB1236C13B1B4F844201A6174
:101058002B686FF386132B60F8BD636AA06B4A7820
:10106800A68F46611A739A689607FCD59A68100687
:10107800FCD48F7801F1030E002F37D007F1030C51
:101088008C447146636AA06B11F8012BA68F066128
:101098001A739A689207FCD59A681606FCD48C4590
:1010A800F0D10EEB07010B78012BC9D14F7801F174
:1010B800020EDFB107F1020C8C447146636AA06B23
:1010C80011F8012BA68F06611A739A689007FCD550
:1010D8009A681206FCD48C45F0D10EEB0701E2E7C2
:1010E80048788E1CFFF786FF3146A6E77146A4E7CD
:1010F8002DE9F04F83B01F46BDF938300093BDF994
:101108003C30BDF83090BDF834809DF840A09DF883
:1011180058B001930C46002900F0E28000210546F2
:1011280016462046742200F0ABFCDDF854C084F863
:1011380048B0BCE80F0004F1240EAEE80F00BCE88C
:101148000F00AEE80F00DCF80030CEF80030A26ADD
:10115800002A4ED0E36A03EB830302EB8302A2F179
:101168000C0152F80C3C6FF3000342F80C3C0B687E
:1011780013F00103FBD1BBF1010F10D0BBF1020F3B
:1011880019D152F80C3C012161F3092342F80C3CB7
:1011980052F80C3C61F38B2342F80C3C0BE052F8FC
:1011A8000C1C63F3092142F80C1C52F80C1C63F365
:1011B8008B2142F80C1C52F80C3C6FF3C30342F825
:1011C8000C3C52F80C3C6FF3820342F80C3C52F88A
:1011D8000C3C43F0020342F80C3C52F80C3C6FF311
:1011E800861342F80C3C52F80C3C43F0800342F85A
:1011F8000C3CB742394638BF3146BE4228BF3E464E
:10120800BAF1000F3CD1009B6381019BA381A680AA
:10121800E180A4F80090A4F80280B1454DD341457F
:101228004BD8119B002B48D0129B002B45D0119A0C
:101238006261129AA261139AE26117AB149A226250
:101248000FCB002704F14C0684F808A086E80F00AD
:10125800C4E91B7784F86470002D41D02B6F4BB123
:1012680001221D461B6F511C1046CAB2002BF8D133
:1012780084F864002046E5662C6703B0BDE8F08F6B
:10128800BAF1020F22D0BAF1010F2DD0BAF1030F33
:1012980013D1009BA381019BA8EB03035B1A638115
:1012A80032464B46A180E680A4F80080A4F802905C
:1012B8000E46C14611469846AFE7742200212046E3
:1012C80000F0DEFB002003B0BDE8F08F009BA9EB27
:1012D8000302019B921BA8EB030362815B1A95E74B
:1012E800204603B0BDE8F08F019B6381009BA9EB0A
:1012F80003039B1BA381D3E7036B10B5044653B1CB
:10130800828E5A611920FFF775FE236BA28E1A612F
:101318001920FFF76FFE6369207A98470146204637
:10132800FFF776FE94F85A10E26C64290B4628BF42
:10133800642384F85A308AB1D16A104801FB03F358
:10134800216DA0FB03035B09062906D8DFE801F03D
:101358000E05100512050400136410BD636D002B03
:10136800FBD0B4F8582039B11A6110BD536310BDD1
:10137800936310BDD36310BD5A6110BD1F85EB5137
:1013880010B5C4888388013C82B00022A4B2013B16
:10139800CDE900419BB2114600F093FA02B010BDAE
:1013A8002DE9F04F8BB0AC4C05919346159A149FDC
:1013B8009DF85CC004EA1224C2F3C4015209214317
:1013C80002F4F8620A4390F8481092B20129049294
:1013D800169A00F03581049D9F4EC2F3C40406EAB4
:1013E80012265209344302F4F8622243012994B2C6
:1013F80001D164BAA4B297F808A09A4503D87A7ABA
:101408009A4280F085804FF0000A397801F1FF3860
:101418004FEAE80808F10108B8F1040F75DC7A68AA
:101428007B7808FB0AFA03FB0A2A4FEAC802013A4A
:1014380001269640BCF1000F6FD0002B65D0049AAE
:10144800149752BA92B24FF00009B8F1010F0792FF
:10145800CDF80C905F4653D0B8F1020F00F0E08051
:10146800B8F1030F00F0DF80B8F1040F08BFDAF815
:101478000090C244002948D00FFA87FBBBF1000F47
:1014880034DB059C002503E00134A942A4B22BDD1E
:1014980009FA05F3334205F10105F5D0838822B234
:1014A8009342F1DDC3885B452346EDDD002AEBDB83
:1014B80021463A460097069000F02AF906980799BF
:1014C80090F84820049B012A08BF0B460DF126011D
:1014D8000122ADF8263000F07AF9149B06981978A5
:1014E8000134A942A4B2D3DC149B5B78039A01327D
:1014F8009342039209DD0137B8F1010FBFB2ABD1B6
:101508009AF80090C2440029B6D10BB0BDE8F08F1C
:10151800A3EB0A0A5FFA8AFA77E70BF1FF32134462
:101528009BB20093059BD0F824900390013B0B4499
:101538005A4605999BB200F0EBF80398016C11B17B
:10154800B0F844304B61836B828F1A61D9F8003050
:101558006FF3CB23C9F8003090F84830022B73D0D2
:10156800D9F8003043F04003C9F800307B78002BED
:101578003DD097F800E04FF0000CB8F1010F7FD094
:10158800B8F1020F7FD0B8F1030F7FD0DAF800105E
:10159800C244BEF1000F25D0002201FA02F3334203
:1015A80014BFAE46A646D9F808309B07FBD590F87D
:1015B8004830022B52D1C9F80CE097F800E001320C
:1015C80096450EDD01FA02F3334214BFAB46A3463B
:1015D800D9F808309B07FBD501329645C9F80CB0FD
:1015E800F0DC7B780CF1010C6345C6DC016CD9F8A2
:1015F80008309A07FBD5D9F80830C3F3C0121B0688
:10160800F9D4D9F8003062F38613C9F800300029FC
:101618003FF47BAFB0F844300B610BB0BDE8F08FFE
:10162800BAF8009025E79AF802909AF801204FEA54
:10163800094949EA02299AF8002049EA020918E703
:10164800049C65BAADB2C7E6D9F8003043F400632C
:10165800C9F8003084E700BF00F8FFFF5FFA8EF397
:1016680089F80C30CEF3072ED9F808309B07FBD544
:1016780089F80CE097F800E0013272458DDBB0E79D
:101688009AF8001084E7BAF8001081E79AF8021077
:101698009AF80120090441EA02219AF8002011432E
:1016A80076E700BF2DE9F04F1F4685B01B780E9EE8
:1016B8009DF844A0DDE90F8905460C46934603B31F
:1016C80096F800C0AA88A4449445284609DD717894
:1016D800EC888B441FFA8BFB5944A1424FF000045D
:1016E8000FDC2146CDE9029ACDE900685A46FFF79A
:1016F80057FE96F800C017F8013F6444A4B2002BC7
:10170800E0D1EC81A5F810B005B0BDE8F08F00BFBE
:1017180030B52C25B0F80CE0BDF80C407444724488
:1017280034B42B25B0F80AE003EB0E0401EB0E03EA
:101738002A223CB4D0F824E0036C846BB0F84450FF
:10174800B0F83CC0DEF80000010010F04000F9D10C
:1017580021F42C4141F04001CEF8001003B15D6145
:10176800C4F814C001BC8EF80C00DEF8081011F0A3
:101778000201FAD0DEF8081011F08001FAD12C2805
:101788001AD0C4F810C0022201BC4FEA10218EF80A
:101798000C10DEF8081011F00201FAD08EF80C00D7
:1017A800DEF808108900FBD0013AEDD1DEF8081008
:1017B80011F08001FAD1D3E703B11D61DEF8000012
:1017C80020F0400040F40060CEF8000030BD30B595
:1017D8006D40D0F824E0DEF800309C4613F040035A
:1017E800F9D14CF0400CCEF800C0036C1BB1B0F836
:1017F80044C0C3F814C0846B808F20610888CEF879
:101808000C002D4305B90231DEF8080010F0020083
:10181800FAD0013AF2D1DEF8080010F08000FAD1CF
:101828000BB1C3F810C0DEF8000020F04000CEF87D
:10183800000030BDD0F828C05CEA0C0C3FF4C7AFFC
:1018480030B56D40D0F824E0DEF800301C0013F00D
:1018580040037FF4C0AF44F04004CEF80040DEF807
:10186800044044F00204CEF80440036C13B1B0F80D
:1018780044405C61836B848F1C6100F16004C06A22
:101888000138142300FB03CC0CF108004FF6FF735A
:101898009A42CEBFD21A13460022226043600EF14C
:1018A8000C0EC0F808E0C16001682D430CBF41F080
:1018B800800121F0800141F0010121F04001016027
:1018C80030BD30B59942C2BF8E4619467346BDF841
:1018D8000C40A242C2BF964622467446B0F804E0C5
:1018E800AEF1010E714531DCB0F806C0ACF1010C67
:1018F80062452BDC7345C8BF73466445C8BF644660
:1019080082B000945D1A05F10105A41A05FB04557F
:101918000400FFF7FDFE02B00498C0F3C401C0F351
:10192800852241EA4211C0F3C44241EAC221A4F827
:101938006810200000F168012A000125D0F828C0AD
:101948005CEA0C0C3FF445AFFFF77CBF30BD0000EC
:1019580000B5A1F101018A00012303FA02F34360F3
:10196800142201FB020000F10800016821F00101C6
:101978000160016811F00101FBD1124B1B681A6E5E
:101988006AB14FF6FF718A42CEBF521A1146002241
:1019980041601A66016841F00101016000BD586AA2
:1019A800416821F002014160816811F08001FBD19A
:1019B8001A6C12B1B3F844101161016821F04001AA
:1019C800016000BDE800002058B102280ED00128AF
:1019D80011D003280A4814BF0023F82380F84130A7
:1019E80070470748482380F84130704704489C23D3
:1019F80080F84130704702482C2380F84130704706
:101A08001000002010B4074C49BA618120715BBAFC
:101A1800000A110AE07061712046A271A3815DF885
:101A2800044B7047A400002000487047B80000200D
:101A380000487047C000002070B50D4D0D4C641B68
:101A4800A4100026A64209D10B4D0C4C00F064F8F6
:101A5800641BA4100026A64205D170BD55F8043BAE
:101A680098470136EEE755F8043B98470136F2E708
:101A7800704700087047000870470008784700085A
:101A880002440346934200D1704703F8011BF9E76B
:101A9800F0B51F4C8BB005460B466E4604F1200C82
:101AA80020686168374603C7083464453E46F7D165
:101AB80021793971911E2068386022294FF0000180
:101AC80004D919700B4618460BB0F0BD581E844651
:101AD800B5FBF2F702FB175628366E440C4616F88B
:101AE800286C0CF8016F2E46B24201F101013D4607
:101AF800EED900225A541919A51AAA42E3DA10F8A5
:101B0800015F0E780670013201F80159F4E700BF51
:101B180048470008FFF7BCBFF8B500BFF8BC08BCD1
:101B28009E467047F8B500BFF8BC08BC9E46704793
:101B380000040040060000000000000000004B0008
:101B480048656C6C6F2C20776F726C642100000004
:101B580002040608020C0810000000000102030439
:101B68000000000000000000010203040607080945
:101B78000000000000000000010203040607080935
:101B8800000000000000000000000000000000004D
:101B9800000000000000000000000000000000003D
:101BA800000000000000000000000000000000002D
:101BB8000000000000000000000000000003000317
:101BC80000030003000300030003000300030003F5
:101BD80000000003800780070003000000000000E9
:101BE8000000000000000000000000000000C00C21
:101BF800C00CC00CC00CC00CC00C000000000000E1
:101C080000000000000000000000000000000000CC
:101C180000000000000000000000000000000000BC
:101C28001803180330063006FC7FFC7F600C600C3C
:101C3800C018C018F8FFF8FF8031803100630063D6
:101C4800000000000000000000000000000000008C
:101C5800000000030003B007F00F701C30180018D4
:101C6800E00FF00718001818381CF01FE01B80015F
:101C7800800180010000000000000000000000005A
:101C880000000000003E0077006300630077383EE4
:101C9800E0008003000EF838DC018C018C01DC01C7
:101CA800F800000000000000000000000000000034
:101CB8000000000000000000000FC01F801800187E
:101CC800001C000C000E301FE033E031C030E0385B
:101CD800F01F300F000000000000000000000000AE
:101CE80000000000000000000003000300030003E0
:101CF80000030003000000000000000000000000D6
:101D080000000000000000000000000000000000CB
:101D180000000000000000000000C000C001000337
:101D28000003000600060006000C000C000C000C66
:101D3800000C000C00060006000600030003C001AA
:101D4800C00000000000000000000000000C000EB1
:101D580000030003800180018001C000C000C000B2
:101D6800C000C000C00080018001800100030003A2
:101D7800000E000C0000000000000000000000033E
:101D8800000300033033F03FC00F8007C00FE01C92
:101D980040080000000000000000000000000000F3
:101DA800000000000000000000000000000000002B
:101DB800000000000000000300030003000300030C
:101DC800F87FF87F0003000300030003000300000E
:101DD80000000000000000000000000000000000FB
:101DE80000000000000000000000000000000000EB
:101DF8000000000000000000C003C00380030007CB
:101E08000007000E000C000C00000000000000009D
:101E180000000000000000000000000000000000BA
:101E280000000000F83FF83F00000000000000003C
:101E3800000000000000000000000000000000009A
:101E4800000000000000000000000000000000008A
:101E580000000000000000000000000000038007F0
:101E680080070003000000000000000000000000E0
:101E7800000000003000300060006000C000C000BA
:101E88008001800100030003000300060006000C27
:101E9800000C00180018003000300000000000009E
:101EA800000000000000000000008007E01F60182C
:101EB800303030303030303030303030303030301A
:101EC80030306018E01F80070000000000000000AC
:101ED8000000000000000000000000008003801FD8
:101EE800801D8001800180018001800180018001C6
:101EF800800180018001F81FF81F00000000000029
:101F08000000000000000000000000000000800742
:101F1800E01F60183018300030006000E000C00199
:101F280080030007000E3018F03FF03F000000006B
:101F38000000000000000000000000000000000099
:101F4800800FC03FE03060006000E000C003E003A5
:101F580070003000300030006038E03F800F000033
:101F68000000000000000000000000000000000069
:101F78000000C000C001C003C002C006C00CC008F9
:101F8800C018C830F83FF83FC000C000F003F003A5
:101F98000000000000000000000000000000000039
:101FA80000000000E03FE03F0030003000308037A4
:101FB800E03F603830003000300030006038E03FEB
:101FC800800F00000000000000000000000000007A
:101FD800000000000000F001F00F000E00180018CB
:101FE80000308037E03F60383030303030306018B3
:101FF800E01F800700000000000000000000000053
:102008000000000000000000F03FF03F30306000AA
:102018006000C000C000800180018001000300034F
:1020280000060006000C0000000000000000000090
:10203800000000000000000000008007E01F60189A
:10204800303030306018C00FC00F6018303030307A
:1020580030306018E01F800700000000000000001A
:102068000000000000000000000000008007E01FE2
:1020780060183030303030307018F01FB007300042
:1020880060006000C001C03F003E0000000000008A
:102098000000000000000000000000000000000038
:1020A8000000000000038007800700030000000014
:1020B8000000000000038007800700030000000004
:1020C8000000000000000000000000000000000008
:1020D80000000000000000038007800700030000E4
:1020E800000000000000800780070007000E000EB7
:1020F800001C00180018000000000000000000008C
:10210800000000000000000018007800E0018007CF
:10211800001E00780078001E8007E0017800180093
:1021280000000000000000000000000000000000A7
:102138000000000000000000000000000000000097
:10214800F87FF87F00000000F87FF87F00000000AB
:102158000000000000000000000000000000000077
:10216800000000000000000000000000006000788F
:10217800001E8007E00178007800E0018007001E5B
:10218800007800600000000000000000000000006F
:102198000000000000000000801FE01F60183000F1
:1021A80030007000E001C0070006000600000006CD
:1021B800000F000F000600000000000000000000F3
:1021C800000000000000000000008007E01F601809
:1021D80030303030F0337037303630367837D833E7
:1021E800003000300018E01FE00700000000000089
:1021F800000000000000000000000000001F001F99
:1022080080078007C00CC00CC00C6018E01FE01FDE
:10221800601830303030FCFCFCFC0000000000008E
:102228000000000000000000000000000000C07F67
:10223800E07F7018301830187018E01FF01F381839
:102248001818181818183818F07FE07F00000000D8
:102258000000000000000000000000000000000076
:10226800D807F81F783C18301870006000600060CC
:1022780000600060007008303C3CF81FE007000078
:102288000000000000000000000000000000000046
:102298000000807FE07FF0183018381818181818D8
:1022A80018181818181838183018F018E07F807F98
:1022B8000000000000000000000000000000000016
:1022C80000000000F87FF87F18181818D818C018F0
:1022D800C01FC01FC018C018181818181818F87F81
:1022E800F87F00000000000000000000000000006F
:1022F800000000000000FC3FFC3F0C0C0C0C6C0CB8
:10230800600CE00FE00F600C600C000C000C000C7F
:10231800803F803F00000000000000000000000037
:102328000000000000000000D807F81F783C1830B3
:102338001870006000600060FC61FC611870183063
:10234800383CF81FE0070000000000000000000013
:1023580000000000000000000000FCFCFCFC303025
:10236800303030303030F03FF03F303030303030C7
:1023780030303030FCFCFCFC0000000000000000A5
:10238800000000000000000000000000F03FF03FE7
:10239800000300030003000300030003000300031D
:1023A800000300030003F03FF03F000000000000BE
:1023B8000000000000000000000000000000FC0712
:1023C800FC07600060006000600060006000600062
:1023D800606060606060C070C03F000F0000000077
:1023E80000000000000000000000000000000000E5
:1023F800F8FCF8FC6030C030803100330037803F93
:10240800C039E0306030703030303CFC3CFC0000BB
:1024180000000000000000000000000000000000B4
:102428000000807F807F000C000C000C000C000C6A
:10243800000C000C0C0C0C0C0C0C0C0CFC7FFC7F26
:102448000000000000000000000000000000000084
:10245800000000003CF03CF0787878787878D86C08
:10246800D86CD86C986798671863186318607CF8FC
:102478007CF80000000000000000000000000000E0
:10248800000000000000FCF1FCF93038303C303C22
:10249800303630363033B031B031F030F030703063
:1024A80070FE30FE00000000000000000000000088
:1024B8000000000000000000C00FF03F78781860AE
:1024C8001CE00CC00CC00CC00CC00CC01CE0186098
:1024D8007878F03FC00F0000000000000000000006
:1024E80000000000000000000000C07FF07F3018EE
:1024F8001818181818183018F01FC01F00180018DE
:1025080000180018807F807F000000000000000095
:10251800000000000000000000000000C00FF03FB5
:10252800787818601CE00CC00CC00CC00CC00CC043
:102538001CE018607878F03FC00F0004FC1F380ECC
:10254800000000000000000000000000000080FF04
:10255800E0FF60303030303030306030E03F803F76
:10256800C031E030603070303CFC3CFC00000000C2
:102578000000000000000000000000000000000053
:10258800B007F01F7018303000300038E01FF00F2F
:1025980038001800183018303038F03FC0370000C5
:1025A8000000000000000000000000000000000023
:1025B8000000F87FF87F1863186318631863000336
:1025C800000300030003000300030003E01FE01FF3
:1025D80000000000000000000000000000000000F3
:1025E80000000000FCFCFCFC303030303030303073
:1025F8003030303030303030303030306018E01F1C
:10260800800700000000000000000000000000003B
:10261800000000000000FCFCFCFC303030303030A2
:10262800601860186018C00CC00C8007800780070D
:10263800000300030000000000000000000000008C
:1026480000000000000000007CF87CF818601860AA
:102658001860186330333033B037B037B037E03CE8
:10266800E01C601860180000000000000000000076
:1026780000000000000000000000FCFCFCFC303002
:102688006018C00CC00C800700038007C00CC00C89
:1026980060183030FCFCFCFC00000000000000006A
:1026A800000000000000000000000000FCFCFCFC32
:1026B800303060186018C00CC00C80078007000319
:1026C800000300030003E01FE01F000000000000FB
:1026D8000000000000000000000000000000F03FC3
:1026E800F03F7030E030C030800180010003000608
:1026F8000006300C301C3038F03FF03F000000007E
:1027080000000000000000000000000000000000C1
:10271800C007C007000600060006000600060006FF
:102728000006000600060006000600060006000671
:1027380000060006C007C0070000000000000030C7
:10274800003000180018000C000C000600060003FA
:102758000003000380018001C000C0006000600029
:102768003000300000000000000000000000000001
:1027780000000000C007C007C000C000C000C000C3
:10278800C000C000C000C000C000C000C000C00041
:10279800C000C000C000C000C007C00700000000A3
:1027A80000008001C0036006300C0000000000003B
:1027B8000000000000000000000000000000000011
:1027C8000000000000000000000000000000000001
:1027D80000000000000000000000000000000000F1
:1027E80000000000000000000000000000000000E1
:1027F80000000000000000000000FEFFFEFF0000D7
:10280800000000000000000C000E8003C000000063
:1028180000000000000000000000000000000000B0
:1028280000000000000000000000000000000000A0
:102838000000000000000000000000000000000090
:102848000000E007F01F38081800D807F81F3818EC
:10285800183018307818FE1F9E070000000000008E
:102868000000000000000000000000000078007870
:1028780000180018C01BF01F381C18180C180C186A
:102888000C180C181818381CF07FC07B00000000CA
:102898000000000000000000000000000000000030
:1028A800000000000000CC03FC0F3C1C0C180C308E
:1028B80000300030003008181C1CF80FE00300003E
:1028C8000000000000000000000000000000000000
:1028D8007800780018001800D803F80F381C18186A
:1028E80018301830183018301818381CFE0FDE034E
:1028F80000000000000000000000000000000000D0
:1029080000000000000000000000C003F00F381CA9
:1029180018180C30FC3FFC3F00300018181CFC0F46
:10292800F0030000000000000000000000000000AC
:1029380000000000FC00FC0180030003F81FF81FE2
:102948000003000300030003000300030003000367
:10295800F81FF81F00000000000000000000000041
:102968000000000000000000000000000000DE037E
:10297800FE0F381C1818183018301830183018186E
:10298800381CF80FD807180018006000E01F801FD7
:10299800000000000000000000780078001800180F
:1029A800E019F01F381E18181818181818181818D1
:1029B800181818187E7E7E7E0000000000000000B7
:1029C800000000000000000080018001800100007C
:1029D8000000801F801F800180018001800180012C
:1029E800800180018001FC3FFC3F000000000000E6
:1029F80000000000000000000000C000C000C0008F
:102A080000000000E01FE01F600060006000600040
:102A180060006000600060006000600060006000AE
:102A2800C000C01F001F0000000000000000003CA4
:102A3800003C000C000CFC0CFC0C600CC00C800D65
:102A4800000F800FE00C700C180C7E3C7E3C0000E0
:102A5800000000000000000000000000000000006E
:102A6800801F801F8001800180018001800180011A
:102A7800800180018001800180018001F81FF81F1A
:102A8800000000000000000000000000000000003E
:102A9800000000000000000000007877FC7FCC39BF
:102AA8008C318C318C318C318C318C318C31CE79AC
:102AB800CE790000000000000000000000000000C7
:102AC800000000000000000000000000E079F07F36
:102AD800381E181818181818181818181818181848
:102AE8007E7E7E7E000000000000000000000000E6
:102AF8000000000000000000000000000000C0030B
:102B0800F00F381C18180C300C300C300C3018181A
:102B1800381CF00FC0030000000000000000000097
:102B2800000000000000000000000000000000009D
:102B3800C07BF07F381C18180C180C180C180C18CF
:102B48001818381CF01FC01B001800180018807FC8
:102B5800807F00000000000000000000000000006E
:102B68000000DE03FE0F381C181818301830183013
:102B780018301818381CF80FD80318001800180057
:102B8800FE01FE010000000000000000000000003F
:102B9800000000007C1EFE1ECC0700070006000691
:102BA8000006000600060006E01FE01F0000000007
:102BB800000000000000000000000000000000000D
:102BC800000000000000D807F80F381C181800187B
:102BD800F00FF8070C000C181C1CF81FF01B000065
:102BE80000000000000000000000000000000000DD
:102BF8000000000600060006F83FF83F0006000641
:102C0800000600060006000604060E07FC03F00195
:102C180000000000000000000000000000000000AC
:102C280000000000000000000000F878F87818188C
:102C3800181818181818181818181818781CFE0FCB
:102C48009E070000000000000000000000000000D7
:102C58000000000000000000000000007E7E7E7E74
:102C680018181818300C300C60066006C003C00332
:102C7800800180010000000000000000000000004A
:102C880000000000000000000000000000003E7C82
:102C98003E7C0C300C30981998199819B00DF00F2B
:102CA800700E6006600600000000000000000000D2
:102CB800000000000000000000000000000000000C
:102CC8007C3E7C3E300C6006C00380018001C0035E
:102CD8006006300C7C3E7C3E0000000000000000D6
:102CE80000000000000000000000000000000000DC
:102CF80000007E7E7E7E18181818300C300C600696
:102D080060064003C0038001800100030003000641
:102D1800807F807F000000000000000000000000AD
:102D280000000000F81FF81F30186018C00080016C
:102D3800800100031806180CF81FF81F0000000097
:102D4800000000000000000000000000000000007B
:102D58006000E0018001000300030003000300039A
:102D6800000E001C000E0003000300030003000314
:102D780000038001E001600000030003000300037A
:102D88000003000300030003000300030003000323
:102D98000003000300030003000300030003000313
:102DA800000300030003000300030000000000000C
:102DB80000000000000C000F00038001800180016A
:102DC80080018001E0007000E00080018001800146
:102DD8008001800180010003000F000C000000004A
:102DE80000000000D807F00D0000000000000000FF
:102DF80000000000000000000000000000000000CB
:102E080000000000000000000000000000000000BA
:102E180000000000000000000000000000000000AA
:102E28000000000000000000000000000000800317
:102E3800C007C00780030000000000000000000079
:102E480000000000000000000000F0FFF0FF30C6A6
:102E580030C600060006F807FC070E06060606063A
:102E68000606CE06FC3E783E00000000000000008A
:102E780000000000E000C00180030000FC3FFC3FB0
:102E88000C0C0C0C0C0C000C000C000C000C000CB6
:102E9800000C000C000C803F803F00000000000088
:102EA800000000000000000000000000000000001A
:102EB800000000000000000000000000000000000A
:102EC80000000000000080038003800080000001F3
:102ED8000002000000000000000000000000800365
:102EE8000007000E0000F8FFF8FF18301830003017
:102EF8000030003000300030003000FC00FC0000E2
:102F080000000000000000000000000000000000B9
:102F180000000000000000000000000000000000A9
:102F280000000000000000000000701C701C10046D
:102F380010042008401000000000000000000000FD
:102F48000000000000000000000000000000000079
:102F580000000000000000000000000060666066DD
:102F68006066000000000000000000000000000093
:102F7800000000000000800700030003F03FF03F5E
:102F88000003000380078007000300030003000319
:102F98000003000300000000000000000000000023
:102FA8000000000000000000800700030003F03F5D
:102FB800F03F000300038007800700030003F03F91
:102FC800F03F00030003800700000000000000003D
:102FD80000000000000000000000000000000000E9
:102FE80000000000000000000000000000000000D9
:102FF80000000000000000000000000000000000C9
:10300800000000000000000000000000807800CDF3
:103018000085008600CA007C000400080008BC0780
:10302800E60C42184218E62CBC27000000000000FD
:103038000000000000000000000000000000E0FFA9
:10304800E0FF803180318031F831FC318E318631BA
:103058008631863186718E61FCE7F8C70000000072
:103068000000000000000000000000000000000058
:1030780000000000000000000000800080018001C6
:1030880000030003000380018001800000000000AD
:103098000000000000000000000000000000000028
:1030A8000000E0F3E0F38061806180618061F87F77
:1030B800FC7F8E618661866186618E61FCF3F8F320
:1030C800000000000000000000000000C0018003B4
:1030D80000070000F8FCF8FC6030C0308031003395
:1030E8000037803FC039E0306030703030303CFC11
:1030F8003CFC000000000000000000000000000090
:10310800000000000000F0FFF0FF30C630C60006E7
:103118000006F807FC070E0606060606060606065B
:103128008E1F8E1F0000000000000000000000003D
:103138000000000000000000FCFCFCFC30303030D7
:103148003030303030303030303030303030303077
:103158003030FCFFFCFF000300030000000000000B
:1031680000000000000000000018C07FC07F0018A9
:10317800E019F01F381E18181818181818181818F9
:1031880018181818187E187E18001800B003E001E7
:10319800000000000000000000000000C000C000A7
:1031A800C001C00180038003800700000000000008
:1031B8000000000000000000000000000000000007
:1031C8000000000000000000000000000000C00334
:1031D80080038003000700070006000600000000C7
:1031E80000000000000000000000000000000000D7
:1031F80000000000000000000000000000000000C7
:103208000C060C061C0E1C0E381C381C783C0000E2
:1032180000000000000000000000000000000000A6
:103228000000000000000000000000000000000096
:1032380000003C0F380E380E701C701C60186018A7
:103248000000000000000000000000000000000076
:103258000000000000000000000000000000000066
:103268000000000000000000000000000000000056
:1032780000008003C007C0078003000000000000B2
:103288000000000000000000000000000000000036
:103298000000000000000000000000000000000026
:1032A8000000E00FE00F0000000000000000000038
:1032B8000000000000000000000000000000000006
:1032C80000000000000000000000000000000000F6
:1032D80000000000FC7FFC7F0000000000000000F0
:1032E80000000000000000000000000000000000D6
:1032F80000000000000000000000000000000000C6
:1033080000000000000000000000000000000000B5
:1033180000000000000000000000000000000000A5
:103328000000000000000000000002FD86FDCE3114
:10333800FE31B6318631863186310000000000004A
:103348000000000000000000000000000000000075
:103358000000000000000000000000000000000065
:1033680000000000F07FF07FC018C018C018FC18DB
:10337800FE18C618C238C630FEF3FCE30000000091
:103388000000000000000000000000000000000035
:10339800000000000000000000000002000300031D
:1033A800800180018001000300030002000000008A
:1033B8000000000000000000000000000000000005
:1033C8000000000000000000E0F1E0F1C060C06013
:1033D800C060FC7FFE7FC660C260C660FEF1FCF183
:1033E80000000000000000000000000000000000D5
:1033F8000000E000C00180030000FC3CFC3C600CC5
:10340800C00C800D000F800FE00C700C180C7E3C77
:103418007E3C0000000000000000000000000000EA
:10342800000000000018C07FC07F0018E019F01FDE
:10343800381E1818181818181818181818181818DE
:103448007E7E7E7E0000000000000000000000007C
:1034580000000000000000000000000000007E7E68
:103468007E7E181818181818181818181818181808
:103478001818FE7FFE7F8001800100000000000018
:103488000000000000000000000000000000000034
:103498000000000000000000000000000000000024
:1034A8000000000000000000000000000000000014
:1034B800000000000000C00C80070003FCFCFCFCBE
:1034C8003030303030186018600C600CC006C00610
:1034D800800380038033003F000E000000000000DE
:1034E8000000000000000000000000006006C003AB
:1034F800800100007E7E7E7E18181818300C300C73
:10350800600660064003C0038001800100030003D9
:103518000006807F807F000000000000000000009F
:10352800FC07FC076000600060006000600060004D
:103538006000606060606060C070C03F000F0000A5
:103548000000000000000000000000000000000073
:1035580000000820D017E00E30183018101030186E
:103568003018E00ED017082000000000000000000E
:103578000000000000000000000000000000000043
:103588000C000C00FC3FFC3F000C000C000C000C75
:10359800000C000C000C000C000C000C000C803F10
:1035A800803F000000000000000000000000000054
:1035B80000030003000300030003000300030003EB
:1035C80000030000000000000000000300030003E7
:1035D80000030003000300030003000300000000D1
:1035E8000000000000000000F007F00F300C301C55
:1035F800003E0037C033E039701C380F9807D801F7
:10360800F80070186018E01FC01F000000000000DC
:103618000000701C701C00000000F87FF87F18186C
:103628001818D818C018C01FC01FC018C0181818FC
:1036380018181818F87FF87F000000000000000034
:10364800000000000000000000000000C007701C1F
:1036580018300C60C447C6CCC28C028C028C66CC75
:10366800C4470C601830701CC00700000000000040
:103678000000000000000000000000000000D80763
:10368800F81F783C183018700060807F807F0060D9
:103698000060007008303C3CF81FE00700000000A4
:1036A8000000000000000000000000000000000012
:1036B8000000000000000000000020026006600614
:1036C800C00CC00CC00C60066006200200000000A0
:1036D80000000000000000000000000000000000E2
:1036E8000000000000000000000000000000F87F5B
:1036F800F87F1800180018001800000000000000EB
:1037080000000000000000000000000000000000B1
:1037180000000000000000000000000000000000A1
:1037280000000000F83FF83F000000000000000023
:103738000000000000000000000000000000000081
:10374800000000000000C007701C18300C60C44F57
:1037580066C66286C287C28666C6644F0C60183029
:10376800701CC007000000000000000000000000FE
:103778006018601800000000F03FF03F00030003ED
:103788000003000300030003000300030003000319
:103798000003F03FF03F00000000000000000000C0
:1037A800000000000000000000008007C00F601843
:1037B800601860186018C00F800700000000000043
:1037C80000000000000000000000000000000000F1
:1037D80000000000000000000000000000000003DE
:1037E800000300030003F87FF87F000300030003D1
:1037F800000300000000F87FF87F000000000000D0
:103808000000000000000000000000000000F03F81
:10381800F03F00030003000300030003000300035C
:103828000003000300030003F03FF03F0000000026
:10383800000000000000000000000000800180017E
:10384800800100000000801F801F8001800180012E
:1038580080018001800180018001FC3FFC3F000065
:103868000000000000000000000000000000000050
:103878000000000018001800F87FF87F00180018F2
:10388800001800180018001800180018007E007EA4
:103898000000000000000000000000000000000020
:1038A80000000000000000000000F878F878181800
:1038B800181818181818181818181818781CFE1F2F
:1038C8009E1F001800180070006000000000000033
:1038D800000000000000F81F783E607E607E607E79
:1038E800607E607E603E601E600660066006600660
:1038F80060066006781E781E0000000000000000C8
:1039080000000000000000000000000000000000AF
:1039180000008001C003C003800100000000000017
:10392800000000000000000000000000000000008F
:103938000000000000000000300C300C0000000007
:10394800C003F00F381C18180C30FC3FFC3F003047
:103958000018181CFC0FF003000000000000000015
:10396800000000000000000000000000FEF1FEF969
:103978006638663C7E3C7E3660366033E031E03146
:10398800E030E030603060FE60FE000000000000C3
:10399800000000000000000000000000000000001F
:1039A80000000000CC03FC0F3C1C0C180C30803FBE
:1039B800803F003008181C1CF80FE00300000000CE
:1039C80000000000000000000000000000000000EF
:1039D800000000000000000000008008C00CC00CBF
:1039E800600660066006C00CC00C8008000000007D
:1039F8000000000000000000000000000000C000FF
:103A0800C000C00000000000E01FE01F6000600070
:103A1800600060006000600060006000600060009E
:103A280060006000C000C01F001F00000000000010
:103A380000000000B007F01F701830300030003868
:103A4800E01FF00F38001800183018303038F03FF9
:103A5800C037000000000000000000000000000067
:103A6800000000000000000000000000D807F80F68
:103A7800381C18180018F00FF8070C000C181C1C3C
:103A8800F81FF01B0000000000000000000000000C
:103A980000000000300C300C300C00000000801FCB
:103AA800801F8001800180018001800180018001E8
:103AB8008001FC3FFC3F0000000000000000000007
:103AC80000000000000000000000001F001F800729
:103AD8008007C00CC00CC00C6018E01FE01F601805
:103AE80030303030FCFCFCFC00000000000000001E
:103AF800000000000000000000000000F07FF07FE0
:103B08003018001800180018E01FF01F381818188F
:103B1800181818183818F07FE07F0000000000001F
:103B28000000000000000000000000000000C07F4E
:103B3800E07F7018301830187018E01FF01F381820
:103B48001818181818183818F07FE07F00000000BF
:103B5800000000000000000000000000000000005D
:103B6800FC3FFC3F0C0C0C0C0C0C000C000C000C6B
:103B7800000C000C000C000C000C803F803F000083
:103B8800000000000000000000000000000000002D
:103B98000000FC3FFC3F300C300C300C300C300C7B
:103BA800300C301C3018301830383070FCFFFCFFF7
:103BB8000CC00CC000000000000000000000000065
:103BC80000000000F87FF87F18181818D818C018D7
:103BD800C01FC01FC018C018181818181818F87F68
:103BE800F87F000000000000000000000000000056
:103BF8000000000000008E719E799819B00DB00D7C
:103C0800E007C003E007F00FB81D98199C398C3104
:103C18008E718E710000000000000000000000009E
:103C28000000000000000000E01FF03F387018702E
:103C380018003000E001F001380018001800187072
:103C48003870F03FE01F0000000000000000000096
:103C5800000000000000000000003CFE7CFE703008
:103C6800F030F030B031B031303330363036303CAF
:103C7800303C3038FCF9FCF1000000000000000086
:103C880000000000300CF00FE00700003CFE7CFE56
:103C98007030F030F030B031B0313033303630364B
:103CA800303C303C3038FCF9FCF1000000000000EA
:103CB8000000000000000000000000000000F8FC08
:103CC800F8FC6030C030803100330037803FC039A5
:103CD800E0306030703030303CFC3CFC00000000CC
:103CE80000000000000000000000000000000000CC
:103CF800FC3FFC3F300C300C300C300C300C300CDE
:103D0800300C300C300C301C3018FC78FC70000083
:103D1800000000000000000000000000000000009B
:103D280000003CF03CF0787878787878D86CD86CDB
:103D3800D86C986798671863186318607CF87CF8E3
:103D4800000000000000000000000000000000006B
:103D580000000000FCFCFCFC3030303030303030EB
:103D6800F03FF03F30303030303030303030FCFC15
:103D7800FCFC000000000000000000000000000043
:103D8800000000000000C00FF03F787818601CE0C9
:103D98000CC00CC00CC00CC00CC01CE018607878BB
:103DA800F03FC00F0000000000000000000000000D
:103DB8000000000000000000FCFFFCFF3030303045
:103DC80030303030303030303030303030303030EB
:103DD8003030FCFCFCFC000000000000000000008B
:103DE80000000000000000000000C07FF07F3018D5
:103DF8001818181818183018F01FC01F00180018C5
:103E080000180018807F807F00000000000000007C
:103E1800000000000000000000000000D807F81FA4
:103E2800783C183018700060006000600060006026
:103E3800007008303C3CF81FE0070000000000005C
:103E48000000000000000000000000000000F87FF3
:103E5800F87F1863186318631863000300030003EE
:103E68000003000300030003E01FE01F0000000040
:103E7800000000000000000000000000000000003A
:103E8800FCFCFCFC3030303030186018600C600CE2
:103E9800C006C006800380038033003F000E000088
:103EA800000000000000000000000000000000000A
:103EB8000000E00FE00F8003E00FF83FBC7B8C634D
:103EC8008EE38C63BC7BF83FE00F8003E00FE00FCC
:103ED80000000000000000000000000000000000DA
:103EE80000000000FCFCFCFC30306018C00CC00C6A
:103EF800800700038007C00CC00C60183030FCFC41
:103F0800FCFC0000000000000000000000000000B1
:103F1800000000000000FCFCFCFC30303030303089
:103F28003030303030303030303030303030303089
:103F3800FCFFFCFF0C000C0000000000000000006B
:103F48000000000000000000FCFCFCFC30303030B9
:103F58003030303030303030F03FF01F300030003B
:103F68003000FC00FC000000000000000000000021
:103F7800000000000000000000007EF87EF81863D2
:103F88001863186318631863186318631863186351
:103F980018631863FEFFFEFF000000000000000029
:103FA8000000000000000000000000007CF87CF821
:103FB8001863186318631863186318631863186321
:103FC800186318631863FEFFFEFF06000600000072
:103FD800000000000000000000000000000000FFDA
:103FE80000FF00CC00CC000C000CE00FF80F180C00
:103FF8000C0C0C0C0C0C180CF83FE03F00000000F7
:1040080000000000000000000000000000000000A8
:104018003EFE3EFE0C300C300C300C300C3FCC3FDA
:10402800CC306C306C306C30CC30DEFF1EFF0000C2
:104038000000000000000000000000000000000078
:104048000000807F807F0018001800180018C01F2B
:10405800F01F30181818181818183018F07FC07F7B
:104068000000000000000000000000000000000048
:1040780000000000C037F03F783C18301C300C00BE
:10408800FC01FC010C000C001C0018207878F03FA3
:10409800C00F000000000000000000000000000049
:1040A800000000000000E0F8F8FBBC670C660E6E2C
:1040B800066C067C067C066C066C0E6E0C66BC678D
:1040C800F8FBE0F80000000000000000000000001D
:1040D8000000000000000000FC07FC1F3018303012
:1040E80030303030301CF01FF007300E301C3018E4
:1040F8003038FCF0FCF00000000000000000000078
:1041080000000000000000000000000000000000A7
:10411800E007F01F38081800D807F81F38181830BB
:1041280018307818FE1F9E070000000000000000ED
:1041380000000000000000001800F001E003C007C4
:10414800000CC00BF01F381C18180C300C300C3049
:104158000C301818381CF00FC003000000000000D5
:104168000000000000000000000000000000000047
:1041780000000000F0FFF8FF0C300C301830F03F62
:10418800F03F18300C301C30F8FFF0FF0000000042
:104198000000000000000000000000000000000017
:1041A800000000000000F8FFF8FF18301830003059
:1041B8000030003000300030003000FC00FC00000F
:1041C80000000000000000000000000000000000E7
:1041D8000000000000000000FC3FFC3F300C300CE9
:1041E800300C300C300C300C301C3018FC7FFC7F4D
:1041F8000C600C60000000000000000000000000DF
:1042080000000000000000000000C003F00F381C90
:1042180018180C30FC3FFC3F00300018181CFC0F2D
:10422800F003000000000000000000000000000093
:104238000000000000000000000000009E799E7948
:10424800B00DE007C0038001C003F00FB81D8C312A
:104258008E718E7100000000000000000000000058
:104268000000000000000000000000000000F00F47
:10427800F81F0C300C301800F003F00318000C3055
:104288001C30F81FF00F00000000000000000000C4
:104298000000000000000000000000000000000016
:1042A8007E7E7E7E181838187818F818D819981B4A
:1042B800181F181E7E7C7E78000000000000000099
:1042C800000000000000000000006006E007800118
:1042D80000007E7E7E7E181838187818F818D819CD
:1042E800981B181F181E7E7C7E78000000000000B6
:1042F80000000000000000000000000000000000B6
:1043080000000000FC3CFC3C600CC00C800D000F61
:10431800800FE00C700C180C7E3C7E3C0000000006
:104328000000000000000000000000000000000085
:10433800000000000000FC3FFC3F300C300C300C4B
:10434800300C300C300C301C3018FC78FC7000003D
:104358000000000000000000000000000000000055
:1043680000000000000000001E781E783C3C2C3441
:104378006C364C32CC338C318C310C301E781E7834
:104388000000000000000000000000000000000025
:10439800000000000000000000007E7E7E7E1818ED
:1043A80018181818F81FF81F1818181818187E7EEB
:1043B8007E7E0000000000000000000000000000F9
:1043C800000000000000000000000000C003F00F23
:1043D800381C18180C300C300C300C301818381CDD
:1043E800F00FC00300000000000000000000000003
:1043F8000000000000000000000000000000FE7F38
:10440800FE7F1818181818181818181818181818D7
:1044180018187E7E7E7E000000000000000000006C
:104428000000000000000000000000000000000084
:10443800C07BF07F381C18180C180C180C180C18B6
:104448001818381CF01FC01B001800180018807FAF
:10445800807F000000000000000000000000000055
:104468000000CC03FC0F3C1C0C180C300030003052
:10447800003008181C1CF80FE003000000000000C2
:104488000000000000000000000000000000000024
:1044980000000000FC3FFC3F8C318C318001800122
:1044A8008001800180018001E007E0070000000032
:1044B80000000000000000000000000000000000F4
:1044C8000000000000007E7E7E7E18181818300C50
:1044D800300C600660064003C003800180010003C1
:1044E80000030006807F807F0000000000000000BD
:1044F800C00FC00F00030003C00FF03F38731863EC
:104508000CC30CC30CC30CC318633873F03FC00F43
:1045180000030003C00FC00F0000000000000000EF
:10452800000000000000000000007C3E7C3E300CD3
:104538006006C00380018001C0036006300C7C3E29
:104548007C3E0000000000000000000000000000A9
:104558000000000000000000000000007E7E7E7E5B
:1045680018181818181818181818181818181818C3
:10457800FE7FFE7F0600060000000000000000002D
:1045880000000000000000000000000000007E7E27
:104598007E7E1818181818181818F81FF80F180021
:1045A80018007E007E0000000000000000000000EF
:1045B80000000000000000000000000000000000F3
:1045C8009E799E798C318C318C318C318C318C3147
:1045D8008C318C31FE7FFE7F00000000000000005F
:1045E80000000000000000000000000000000000C3
:1045F80000009E799E798C318C318C318C318C31D4
:104608008C318C318C31FE7FFE7F06000600000065
:104618000000000000000000000000000000000092
:104628000000000000FC00FC00CC00CCF00FF80FEC
:104638003C0C0C0C0C0C3C0CF80FF00F00000000AC
:104648000000000000000000000000000000000062
:104658000000000000003EFC3EFC0C300C308C3F9B
:10466800CC3FEC316C306C30EC31DEFF9EFF00004B
:104678000000000000000000000000000000000032
:104688000000000000000000007E007E00180018F6
:10469800E01FF01F7818181818187818F07FE07FB6
:1046A8000000000000000000000000000000000002
:1046B80000000000000000000000C033F03F383C5C
:1046C80018300C30FC01FC010C0018103838F01FB1
:1046D800C00700000000000000000000000000000B
:1046E800000000000000000000000000E0F8F8FBF7
:1046F8001C670C66066C067C067C066C0C661C67E0
:10470800F8FBE0F8000000000000000000000000D6
:104718000000000000000000000000000000FE0390
:10472800FE0F181C18181818181CF80FF80318038F
:1047380018277E3E7E1C00000000000000000000DC
:1047480030313233343536373839616263646566FF
:104758006768696A6B6C6D6E6F7071727374757669
:084768007778797A0000000067
:08477000C9010008AD010008B9
:0447780089010008AB
:10477C0000127A000F190000881B000820FF0000AF
:10478C00000100020500280000CF04000083300067
:10479C00ED046403128100E80385017900CB05392F
:1047AC002C00340200F7012000EA02000000C001D6
:1047BC002600C1011100C502353E00C701BE0036FE
:1047CC000100003A015500B102001B00F201080083
:1047DC0026010100E00F1F1A180A0F064587320A3E
:1047EC00070207050000E10F0025270510093A789C
:1047FC004D05180D383A1F00B7010700B6040A82A0
:10480C002700003501010011000205002900027883
:10481C0003000000002A0400000000002B0400002C
:10482C000000002C00030000001000020A0300002E
:08483C000011000278030000E6
:0400000508000EA140
:00000001FF
